{
  "contractName": "EventFactory",
  "abi": [
    {
      "inputs": [
        {
          "name": "walletAddress",
          "type": "address"
        }
      ],
      "payable": false,
      "stateMutability": "nonpayable",
      "type": "constructor"
    },
    {
      "constant": false,
      "inputs": [
        {
          "name": "name",
          "type": "bytes32"
        },
        {
          "name": "description",
          "type": "bytes32"
        },
        {
          "name": "image",
          "type": "bytes32"
        },
        {
          "name": "date",
          "type": "uint256"
        },
        {
          "name": "tickets",
          "type": "uint24"
        },
        {
          "name": "cost",
          "type": "uint16"
        }
      ],
      "name": "createEvent",
      "outputs": [],
      "payable": false,
      "stateMutability": "nonpayable",
      "type": "function"
    },
    {
      "constant": true,
      "inputs": [],
      "name": "getEvents",
      "outputs": [
        {
          "name": "events",
          "type": "address[]"
        }
      ],
      "payable": false,
      "stateMutability": "view",
      "type": "function"
    }
  ],
  "bytecode": "0x608060405234801561001057600080fd5b50604051602080610bf48339810180604052810190808051906020019092919050505033600160006101000a81548173ffffffffffffffffffffffffffffffffffffffff021916908373ffffffffffffffffffffffffffffffffffffffff16021790555080600260006101000a81548173ffffffffffffffffffffffffffffffffffffffff021916908373ffffffffffffffffffffffffffffffffffffffff16021790555050610b2f806100c56000396000f30060806040526004361061004c576000357c0100000000000000000000000000000000000000000000000000000000900463ffffffff168063404aa8f914610051578063a6f44957146100bd575b600080fd5b34801561005d57600080fd5b50610066610131565b6040518080602001828103825283818151815260200191508051906020019060200280838360005b838110156100a957808201518184015260208101905061008e565b505050509050019250505060405180910390f35b3480156100c957600080fd5b5061012f60048036038101908080356000191690602001909291908035600019169060200190929190803560001916906020019092919080359060200190929190803562ffffff169060200190929190803561ffff1690602001909291905050506101bf565b005b606060008054806020026020016040519081016040528092919081815260200182805480156101b557602002820191906000526020600020905b8160009054906101000a900473ffffffffffffffffffffffffffffffffffffffff1673ffffffffffffffffffffffffffffffffffffffff168152602001906001019080831161016b575b5050505050905090565b6000868686868686600260009054906101000a900473ffffffffffffffffffffffffffffffffffffffff166101f261030a565b808860001916600019168152602001876000191660001916815260200186600019166000191681526020018581526020018462ffffff1662ffffff1681526020018361ffff1661ffff1681526020018273ffffffffffffffffffffffffffffffffffffffff1673ffffffffffffffffffffffffffffffffffffffff168152602001975050505050505050604051809103906000f080158015610298573d6000803e3d6000fd5b50905060008190806001815401808255809150509060018203906000526020600020016000909192909190916101000a81548173ffffffffffffffffffffffffffffffffffffffff021916908373ffffffffffffffffffffffffffffffffffffffff1602179055505050505050505050565b6040516107e98061031b833901905600608060405234801561001057600080fd5b5060405160e0806107e9833981018060405281019080805190602001909291908051906020019092919080519060200190929190805190602001909291908051906020019092919080519060200190929190805190602001909291905050508660008160001916905550856001816000191690555084600281600019169055508360038190555082600460006101000a81548162ffffff021916908362ffffff16021790555081600460036101000a81548161ffff021916908361ffff16021790555033600460056101000a81548173ffffffffffffffffffffffffffffffffffffffff021916908373ffffffffffffffffffffffffffffffffffffffff160217905550600460009054906101000a900462ffffff16600660006101000a81548162ffffff021916908362ffffff16021790555080600660036101000a81548173ffffffffffffffffffffffffffffffffffffffff021916908373ffffffffffffffffffffffffffffffffffffffff1602179055505050505050505061064e8061019b6000396000f3006080604052600436106100af576000357c0100000000000000000000000000000000000000000000000000000000900463ffffffff168063087e6212146100b457806325bad9b6146100e757806339e29c521461013157806351c627fd1461016457806378dcfd54146101975780639e5c91c3146101cc578063b02c8d0a146101ff578063c988f61c14610234578063ca75d7701461025f578063e886cd14146102b6578063e98ebeec146102eb575b600080fd5b3480156100c057600080fd5b506100c9610335565b604051808261ffff1661ffff16815260200191505060405180910390f35b3480156100f357600080fd5b50610117600480360381019080803562ffffff169060200190929190505050610349565b604051808215151515815260200191505060405180910390f35b34801561013d57600080fd5b50610146610438565b60405180826000191660001916815260200191505060405180910390f35b34801561017057600080fd5b5061017961043e565b60405180826000191660001916815260200191505060405180910390f35b3480156101a357600080fd5b506101ac610444565b604051808262ffffff1662ffffff16815260200191505060405180910390f35b3480156101d857600080fd5b506101e1610459565b60405180826000191660001916815260200191505060405180910390f35b34801561020b57600080fd5b5061021461045f565b604051808262ffffff1662ffffff16815260200191505060405180910390f35b34801561024057600080fd5b50610249610474565b6040518082815260200191505060405180910390f35b34801561026b57600080fd5b5061027461047a565b604051808273ffffffffffffffffffffffffffffffffffffffff1673ffffffffffffffffffffffffffffffffffffffff16815260200191505060405180910390f35b3480156102c257600080fd5b506102cb6104a0565b604051808262ffffff1662ffffff16815260200191505060405180910390f35b3480156102f757600080fd5b5061031b600480360381019080803562ffffff1690602001909291905050506104f6565b604051808215151515815260200191505060405180910390f35b600460039054906101000a900461ffff1681565b60008162ffffff16600660009054906101000a900462ffffff1662ffffff1610156103775760009050610433565b6003544210151561038b5760009050610433565b81600660008282829054906101000a900462ffffff160392506101000a81548162ffffff021916908362ffffff16021790555081600560003373ffffffffffffffffffffffffffffffffffffffff1673ffffffffffffffffffffffffffffffffffffffff16815260200190815260200160002060008282829054906101000a900462ffffff160192506101000a81548162ffffff021916908362ffffff160217905550600190505b919050565b60005481565b60015481565b600460009054906101000a900462ffffff1681565b60025481565b600660009054906101000a900462ffffff1681565b60035481565b600460059054906101000a900473ffffffffffffffffffffffffffffffffffffffff1681565b6000600560003373ffffffffffffffffffffffffffffffffffffffff1673ffffffffffffffffffffffffffffffffffffffff16815260200190815260200160002060009054906101000a900462ffffff16905090565b60008162ffffff16600560003373ffffffffffffffffffffffffffffffffffffffff1673ffffffffffffffffffffffffffffffffffffffff16815260200190815260200160002060009054906101000a900462ffffff1662ffffff161015610561576000905061061d565b60035442101515610575576000905061061d565b81600660008282829054906101000a900462ffffff160192506101000a81548162ffffff021916908362ffffff16021790555081600560003373ffffffffffffffffffffffffffffffffffffffff1673ffffffffffffffffffffffffffffffffffffffff16815260200190815260200160002060008282829054906101000a900462ffffff160392506101000a81548162ffffff021916908362ffffff160217905550600190505b9190505600a165627a7a72305820bf8ca1911239475f7a5fe04b7e2aff814841b782eae80b89502b22006b4f08f80029a165627a7a723058200dcdbd9f26be4ca995df204712879f23eae6ed77825424888367952d854e7ad10029",
  "source": "pragma solidity ^0.4.23;\n\nimport \"./Event.sol\";\n\ncontract EventFactory\n{\n    address[] m_Events;\n    address m_Owner;\n    address  m_WalletAddress;\n\n    constructor(address walletAddress) public\n    {\n        m_Owner = msg.sender;\n        m_WalletAddress = walletAddress;\n    }\n\n    function createEvent(bytes32 name, bytes32 description, bytes32 image, uint date, uint24 tickets, uint16 cost) public\n    {\n        address newEvent = new Event(name, description, image, date, tickets, cost, m_WalletAddress);\n        m_Events.push(newEvent);\n    }\n\n    function getEvents() public view returns (address[] events)\n    {\n        return m_Events;\n    }\n\n}\n",
  "sourcePath": "/home/jan/Projects/pae-18/src/contracts/EventFactory.sol",
  "compiler": {
    "name": "solc",
    "version": "0.4.24+commit.e67f0147.Emscripten.clang"
  },
  "schemaVersion": "2.0.0",
  "updatedAt": "2018-06-17T17:53:41.417Z"
}