{
  "contractName": "Event",
  "abi": [
    {
      "constant": true,
      "inputs": [],
      "name": "m_Cost",
      "outputs": [
        {
          "name": "",
          "type": "uint16"
        }
      ],
      "payable": false,
      "stateMutability": "view",
      "type": "function"
    },
    {
      "constant": true,
      "inputs": [],
      "name": "m_Name",
      "outputs": [
        {
          "name": "",
          "type": "bytes32"
        }
      ],
      "payable": false,
      "stateMutability": "view",
      "type": "function"
    },
    {
      "constant": true,
      "inputs": [],
      "name": "m_Description",
      "outputs": [
        {
          "name": "",
          "type": "bytes32"
        }
      ],
      "payable": false,
      "stateMutability": "view",
      "type": "function"
    },
    {
      "constant": true,
      "inputs": [],
      "name": "m_Tickets",
      "outputs": [
        {
          "name": "",
          "type": "uint24"
        }
      ],
      "payable": false,
      "stateMutability": "view",
      "type": "function"
    },
    {
      "constant": true,
      "inputs": [],
      "name": "m_Image",
      "outputs": [
        {
          "name": "",
          "type": "bytes32"
        }
      ],
      "payable": false,
      "stateMutability": "view",
      "type": "function"
    },
    {
      "constant": true,
      "inputs": [],
      "name": "m_TicketsLeft",
      "outputs": [
        {
          "name": "",
          "type": "uint24"
        }
      ],
      "payable": false,
      "stateMutability": "view",
      "type": "function"
    },
    {
      "constant": true,
      "inputs": [],
      "name": "m_Date",
      "outputs": [
        {
          "name": "",
          "type": "uint256"
        }
      ],
      "payable": false,
      "stateMutability": "view",
      "type": "function"
    },
    {
      "constant": true,
      "inputs": [],
      "name": "m_Owner",
      "outputs": [
        {
          "name": "",
          "type": "address"
        }
      ],
      "payable": false,
      "stateMutability": "view",
      "type": "function"
    },
    {
      "inputs": [
        {
          "name": "name",
          "type": "bytes32"
        },
        {
          "name": "description",
          "type": "bytes32"
        },
        {
          "name": "image",
          "type": "bytes32"
        },
        {
          "name": "date",
          "type": "uint256"
        },
        {
          "name": "tickets",
          "type": "uint24"
        },
        {
          "name": "cost",
          "type": "uint16"
        },
        {
          "name": "walletAddress",
          "type": "address"
        }
      ],
      "payable": false,
      "stateMutability": "nonpayable",
      "type": "constructor"
    },
    {
      "constant": true,
      "inputs": [],
      "name": "amountOfTickets",
      "outputs": [
        {
          "name": "amount",
          "type": "uint24"
        }
      ],
      "payable": false,
      "stateMutability": "view",
      "type": "function"
    },
    {
      "constant": false,
      "inputs": [
        {
          "name": "amount",
          "type": "uint24"
        }
      ],
      "name": "buyTickets",
      "outputs": [
        {
          "name": "success",
          "type": "bool"
        }
      ],
      "payable": false,
      "stateMutability": "nonpayable",
      "type": "function"
    },
    {
      "constant": false,
      "inputs": [
        {
          "name": "amount",
          "type": "uint24"
        }
      ],
      "name": "sellTickets",
      "outputs": [
        {
          "name": "success",
          "type": "bool"
        }
      ],
      "payable": false,
      "stateMutability": "nonpayable",
      "type": "function"
    }
  ],
  "bytecode": "0x608060405234801561001057600080fd5b5060405160e0806107e9833981018060405281019080805190602001909291908051906020019092919080519060200190929190805190602001909291908051906020019092919080519060200190929190805190602001909291905050508660008160001916905550856001816000191690555084600281600019169055508360038190555082600460006101000a81548162ffffff021916908362ffffff16021790555081600460036101000a81548161ffff021916908361ffff16021790555033600460056101000a81548173ffffffffffffffffffffffffffffffffffffffff021916908373ffffffffffffffffffffffffffffffffffffffff160217905550600460009054906101000a900462ffffff16600660006101000a81548162ffffff021916908362ffffff16021790555080600660036101000a81548173ffffffffffffffffffffffffffffffffffffffff021916908373ffffffffffffffffffffffffffffffffffffffff1602179055505050505050505061064e8061019b6000396000f3006080604052600436106100af576000357c0100000000000000000000000000000000000000000000000000000000900463ffffffff168063087e6212146100b457806325bad9b6146100e757806339e29c521461013157806351c627fd1461016457806378dcfd54146101975780639e5c91c3146101cc578063b02c8d0a146101ff578063c988f61c14610234578063ca75d7701461025f578063e886cd14146102b6578063e98ebeec146102eb575b600080fd5b3480156100c057600080fd5b506100c9610335565b604051808261ffff1661ffff16815260200191505060405180910390f35b3480156100f357600080fd5b50610117600480360381019080803562ffffff169060200190929190505050610349565b604051808215151515815260200191505060405180910390f35b34801561013d57600080fd5b50610146610438565b60405180826000191660001916815260200191505060405180910390f35b34801561017057600080fd5b5061017961043e565b60405180826000191660001916815260200191505060405180910390f35b3480156101a357600080fd5b506101ac610444565b604051808262ffffff1662ffffff16815260200191505060405180910390f35b3480156101d857600080fd5b506101e1610459565b60405180826000191660001916815260200191505060405180910390f35b34801561020b57600080fd5b5061021461045f565b604051808262ffffff1662ffffff16815260200191505060405180910390f35b34801561024057600080fd5b50610249610474565b6040518082815260200191505060405180910390f35b34801561026b57600080fd5b5061027461047a565b604051808273ffffffffffffffffffffffffffffffffffffffff1673ffffffffffffffffffffffffffffffffffffffff16815260200191505060405180910390f35b3480156102c257600080fd5b506102cb6104a0565b604051808262ffffff1662ffffff16815260200191505060405180910390f35b3480156102f757600080fd5b5061031b600480360381019080803562ffffff1690602001909291905050506104f6565b604051808215151515815260200191505060405180910390f35b600460039054906101000a900461ffff1681565b60008162ffffff16600660009054906101000a900462ffffff1662ffffff1610156103775760009050610433565b6003544210151561038b5760009050610433565b81600660008282829054906101000a900462ffffff160392506101000a81548162ffffff021916908362ffffff16021790555081600560003373ffffffffffffffffffffffffffffffffffffffff1673ffffffffffffffffffffffffffffffffffffffff16815260200190815260200160002060008282829054906101000a900462ffffff160192506101000a81548162ffffff021916908362ffffff160217905550600190505b919050565b60005481565b60015481565b600460009054906101000a900462ffffff1681565b60025481565b600660009054906101000a900462ffffff1681565b60035481565b600460059054906101000a900473ffffffffffffffffffffffffffffffffffffffff1681565b6000600560003373ffffffffffffffffffffffffffffffffffffffff1673ffffffffffffffffffffffffffffffffffffffff16815260200190815260200160002060009054906101000a900462ffffff16905090565b60008162ffffff16600560003373ffffffffffffffffffffffffffffffffffffffff1673ffffffffffffffffffffffffffffffffffffffff16815260200190815260200160002060009054906101000a900462ffffff1662ffffff161015610561576000905061061d565b60035442101515610575576000905061061d565b81600660008282829054906101000a900462ffffff160192506101000a81548162ffffff021916908362ffffff16021790555081600560003373ffffffffffffffffffffffffffffffffffffffff1673ffffffffffffffffffffffffffffffffffffffff16815260200190815260200160002060008282829054906101000a900462ffffff160392506101000a81548162ffffff021916908362ffffff160217905550600190505b9190505600a165627a7a72305820bf8ca1911239475f7a5fe04b7e2aff814841b782eae80b89502b22006b4f08f80029",
  "source": "pragma solidity ^0.4.23;\n\nimport \"./Wallet.sol\";\n\ncontract Event\n{\n    bytes32 public m_Name;\n    bytes32 public m_Description;\n    bytes32 public m_Image;\n    uint public m_Date;\n    uint24 public m_Tickets;\n    uint16 public m_Cost;\n    address public m_Owner;\n    mapping ( address => uint24 ) m_TicketMap;\n    uint24 public m_TicketsLeft;\n    Wallet m_Wallet;\n\n    constructor(bytes32 name, bytes32 description, bytes32 image, uint date, uint24 tickets, uint16 cost, address walletAddress) public\n    {\n        m_Name = name;\n        m_Description = description;\n        m_Image = image;\n        m_Date = date;\n        m_Tickets = tickets;\n        m_Cost = cost;\n\n        m_Owner = msg.sender;\n        m_TicketsLeft = m_Tickets;\n\n        m_Wallet = Wallet(walletAddress);\n    }\n\n    function amountOfTickets() public view returns (uint24 amount)\n    {\n        return m_TicketMap[msg.sender];\n    }\n\n    function buyTickets(uint24 amount) public returns (bool success)\n    {\n        if (m_TicketsLeft < amount) return false;\n        if (now >= m_Date) return false;\n        // TODO: substract price\n\n        m_TicketsLeft -= amount;\n        m_TicketMap[msg.sender] += amount;\n\n        return true;\n    }\n\n    function sellTickets(uint24 amount) public returns (bool success)\n    {\n        if (m_TicketMap[msg.sender] < amount) return false;\n        if (now >= m_Date) return false;\n        // TODO: return price\n\n        m_TicketsLeft += amount;\n        m_TicketMap[msg.sender] -= amount;\n\n        return true;\n    }\n}",
  "sourcePath": "/home/jan/Projects/pae-18/src/contracts/Event.sol",
  "compiler": {
    "name": "solc",
    "version": "0.4.24+commit.e67f0147.Emscripten.clang"
  },
  "schemaVersion": "2.0.0",
  "updatedAt": "2018-06-17T17:52:13.258Z"
}