{
  "contractName": "Event",
  "abi": [
    {
      "constant": true,
      "inputs": [],
      "name": "m_TotalTickets",
      "outputs": [
        {
          "name": "",
          "type": "uint24"
        }
      ],
      "payable": false,
      "stateMutability": "view",
      "type": "function"
    },
    {
      "constant": true,
      "inputs": [],
      "name": "m_Cost",
      "outputs": [
        {
          "name": "",
          "type": "uint16"
        }
      ],
      "payable": false,
      "stateMutability": "view",
      "type": "function"
    },
    {
      "constant": true,
      "inputs": [],
      "name": "m_EntranceDate",
      "outputs": [
        {
          "name": "",
          "type": "uint256"
        }
      ],
      "payable": false,
      "stateMutability": "view",
      "type": "function"
    },
    {
      "constant": true,
      "inputs": [],
      "name": "m_Name",
      "outputs": [
        {
          "name": "",
          "type": "bytes32"
        }
      ],
      "payable": false,
      "stateMutability": "view",
      "type": "function"
    },
    {
      "constant": true,
      "inputs": [],
      "name": "m_StartDate",
      "outputs": [
        {
          "name": "",
          "type": "uint256"
        }
      ],
      "payable": false,
      "stateMutability": "view",
      "type": "function"
    },
    {
      "constant": true,
      "inputs": [],
      "name": "m_Description",
      "outputs": [
        {
          "name": "",
          "type": "bytes32"
        }
      ],
      "payable": false,
      "stateMutability": "view",
      "type": "function"
    },
    {
      "constant": true,
      "inputs": [],
      "name": "m_FinishDate",
      "outputs": [
        {
          "name": "",
          "type": "uint256"
        }
      ],
      "payable": false,
      "stateMutability": "view",
      "type": "function"
    },
    {
      "constant": true,
      "inputs": [],
      "name": "m_Image",
      "outputs": [
        {
          "name": "",
          "type": "bytes32"
        }
      ],
      "payable": false,
      "stateMutability": "view",
      "type": "function"
    },
    {
      "constant": true,
      "inputs": [],
      "name": "m_TicketsLeft",
      "outputs": [
        {
          "name": "",
          "type": "uint24"
        }
      ],
      "payable": false,
      "stateMutability": "view",
      "type": "function"
    },
    {
      "constant": true,
      "inputs": [],
      "name": "m_Owner",
      "outputs": [
        {
          "name": "",
          "type": "address"
        }
      ],
      "payable": false,
      "stateMutability": "view",
      "type": "function"
    },
    {
      "inputs": [
        {
          "name": "name",
          "type": "bytes32"
        },
        {
          "name": "description",
          "type": "bytes32"
        },
        {
          "name": "image",
          "type": "bytes32"
        },
        {
          "name": "startDate",
          "type": "uint256"
        },
        {
          "name": "duration",
          "type": "uint16"
        },
        {
          "name": "entranceDuration",
          "type": "uint16"
        },
        {
          "name": "totalTickets",
          "type": "uint24"
        },
        {
          "name": "cost",
          "type": "uint16"
        },
        {
          "name": "walletAddress",
          "type": "address"
        },
        {
          "name": "benefitiaryAddress",
          "type": "address"
        }
      ],
      "payable": false,
      "stateMutability": "nonpayable",
      "type": "constructor"
    },
    {
      "constant": true,
      "inputs": [],
      "name": "isBenefitiary",
      "outputs": [
        {
          "name": "",
          "type": "bool"
        }
      ],
      "payable": false,
      "stateMutability": "view",
      "type": "function"
    },
    {
      "constant": true,
      "inputs": [],
      "name": "isEntranceOpen",
      "outputs": [
        {
          "name": "",
          "type": "bool"
        }
      ],
      "payable": false,
      "stateMutability": "view",
      "type": "function"
    },
    {
      "constant": true,
      "inputs": [],
      "name": "hasStarted",
      "outputs": [
        {
          "name": "",
          "type": "bool"
        }
      ],
      "payable": false,
      "stateMutability": "view",
      "type": "function"
    },
    {
      "constant": true,
      "inputs": [],
      "name": "hasFinished",
      "outputs": [
        {
          "name": "",
          "type": "bool"
        }
      ],
      "payable": false,
      "stateMutability": "view",
      "type": "function"
    },
    {
      "constant": true,
      "inputs": [],
      "name": "amountOfTickets",
      "outputs": [
        {
          "name": "amount",
          "type": "uint24"
        }
      ],
      "payable": false,
      "stateMutability": "view",
      "type": "function"
    },
    {
      "constant": true,
      "inputs": [],
      "name": "amountOfRedeemedTickets",
      "outputs": [
        {
          "name": "amount",
          "type": "uint24"
        }
      ],
      "payable": false,
      "stateMutability": "view",
      "type": "function"
    },
    {
      "constant": false,
      "inputs": [
        {
          "name": "amount",
          "type": "uint24"
        }
      ],
      "name": "buyTickets",
      "outputs": [],
      "payable": false,
      "stateMutability": "nonpayable",
      "type": "function"
    },
    {
      "constant": false,
      "inputs": [
        {
          "name": "amount",
          "type": "uint24"
        }
      ],
      "name": "sellTickets",
      "outputs": [],
      "payable": false,
      "stateMutability": "nonpayable",
      "type": "function"
    },
    {
      "constant": false,
      "inputs": [],
      "name": "redeemTicket",
      "outputs": [],
      "payable": false,
      "stateMutability": "nonpayable",
      "type": "function"
    },
    {
      "constant": false,
      "inputs": [],
      "name": "releasePayment",
      "outputs": [],
      "payable": false,
      "stateMutability": "nonpayable",
      "type": "function"
    }
  ],
  "bytecode": "0x608060405234801561001057600080fd5b506040516101408061109583398101806040528101908080519060200190929190805190602001909291908051906020019092919080519060200190929190805190602001909291908051906020019092919080519060200190929190805190602001909291908051906020019092919080519060200190929190505050896000816000191690555088600181600019169055508760028160001916905550866003819055508561ffff16600354016005819055508461ffff166003540360048190555083600660006101000a81548162ffffff021916908362ffffff16021790555082600660036101000a81548161ffff021916908361ffff160217905550600660009054906101000a900462ffffff16600660056101000a81548162ffffff021916908362ffffff16021790555033600660086101000a81548173ffffffffffffffffffffffffffffffffffffffff021916908373ffffffffffffffffffffffffffffffffffffffff16021790555081600860006101000a81548173ffffffffffffffffffffffffffffffffffffffff021916908373ffffffffffffffffffffffffffffffffffffffff16021790555080600960006101000a81548173ffffffffffffffffffffffffffffffffffffffff021916908373ffffffffffffffffffffffffffffffffffffffff16021790555050505050505050505050610e798061021c6000396000f300608060405260043610610112576000357c0100000000000000000000000000000000000000000000000000000000900463ffffffff1680630190874814610117578063087e62121461014c57806325bad9b61461017f5780632a65848b146101b15780633520cb0d146101dc57806339e29c52146101f35780633e8c0be51461022657806344691f7e146102515780634b746a771461028057806351c627fd146102b557806361bc95f8146102e85780638be18cd51461031757806392a9babe146103425780639e5c91c314610371578063b02c8d0a146103a4578063ca75d770146103d9578063d116c8c414610430578063e886cd1414610447578063e98ebeec1461047c578063fe5815a6146104ae575b600080fd5b34801561012357600080fd5b5061012c6104dd565b604051808262ffffff1662ffffff16815260200191505060405180910390f35b34801561015857600080fd5b506101616104f2565b604051808261ffff1661ffff16815260200191505060405180910390f35b34801561018b57600080fd5b506101af600480360381019080803562ffffff169060200190929190505050610506565b005b3480156101bd57600080fd5b506101c6610719565b6040518082815260200191505060405180910390f35b3480156101e857600080fd5b506101f161071f565b005b3480156101ff57600080fd5b50610208610857565b60405180826000191660001916815260200191505060405180910390f35b34801561023257600080fd5b5061023b61085d565b6040518082815260200191505060405180910390f35b34801561025d57600080fd5b50610266610863565b604051808215151515815260200191505060405180910390f35b34801561028c57600080fd5b50610295610870565b604051808262ffffff1662ffffff16815260200191505060405180910390f35b3480156102c157600080fd5b506102ca6108c9565b60405180826000191660001916815260200191505060405180910390f35b3480156102f457600080fd5b506102fd6108cf565b604051808215151515815260200191505060405180910390f35b34801561032357600080fd5b5061032c6108ed565b6040518082815260200191505060405180910390f35b34801561034e57600080fd5b506103576108f3565b604051808215151515815260200191505060405180910390f35b34801561037d57600080fd5b5061038661094b565b60405180826000191660001916815260200191505060405180910390f35b3480156103b057600080fd5b506103b9610951565b604051808262ffffff1662ffffff16815260200191505060405180910390f35b3480156103e557600080fd5b506103ee610966565b604051808273ffffffffffffffffffffffffffffffffffffffff1673ffffffffffffffffffffffffffffffffffffffff16815260200191505060405180910390f35b34801561043c57600080fd5b5061044561098c565b005b34801561045357600080fd5b5061045c610bde565b604051808262ffffff1662ffffff16815260200191505060405180910390f35b34801561048857600080fd5b506104ac600480360381019080803562ffffff169060200190929190505050610c37565b005b3480156104ba57600080fd5b506104c3610e40565b604051808215151515815260200191505060405180910390f35b600660009054906101000a900462ffffff1681565b600660039054906101000a900461ffff1681565b61050e610863565b15151561051a57600080fd5b8062ffffff16600660059054906101000a900462ffffff1662ffffff161015151561054457600080fd5b600860009054906101000a900473ffffffffffffffffffffffffffffffffffffffff1673ffffffffffffffffffffffffffffffffffffffff166323b872dd3330600660039054906101000a900461ffff1661ffff1685026040518463ffffffff167c0100000000000000000000000000000000000000000000000000000000028152600401808473ffffffffffffffffffffffffffffffffffffffff1673ffffffffffffffffffffffffffffffffffffffff1681526020018373ffffffffffffffffffffffffffffffffffffffff1673ffffffffffffffffffffffffffffffffffffffff1681526020018262ffffff1681526020019350505050600060405180830381600087803b15801561065857600080fd5b505af115801561066c573d6000803e3d6000fd5b5050505080600660058282829054906101000a900462ffffff160392506101000a81548162ffffff021916908362ffffff16021790555080600760003373ffffffffffffffffffffffffffffffffffffffff1673ffffffffffffffffffffffffffffffffffffffff16815260200190815260200160002060000160008282829054906101000a900462ffffff160192506101000a81548162ffffff021916908362ffffff16021790555050565b60045481565b6001610729610bde565b62ffffff161015151561073b57600080fd5b6107436108cf565b806107635750610751610863565b80156107625750610760610e40565b155b5b151561076e57600080fd5b600760003373ffffffffffffffffffffffffffffffffffffffff1673ffffffffffffffffffffffffffffffffffffffff168152602001908152602001600020600001600081819054906101000a900462ffffff166001900391906101000a81548162ffffff021916908362ffffff160217905550600760003373ffffffffffffffffffffffffffffffffffffffff1673ffffffffffffffffffffffffffffffffffffffff168152602001908152602001600020600001600381819054906101000a900462ffffff1660010191906101000a81548162ffffff021916908362ffffff160217905550565b60005481565b60035481565b6000600354421015905090565b6000600760003373ffffffffffffffffffffffffffffffffffffffff1673ffffffffffffffffffffffffffffffffffffffff16815260200190815260200160002060000160039054906101000a900462ffffff16905090565b60015481565b60006108d9610863565b1580156108e857506004544210155b905090565b60055481565b6000600960009054906101000a900473ffffffffffffffffffffffffffffffffffffffff1673ffffffffffffffffffffffffffffffffffffffff163373ffffffffffffffffffffffffffffffffffffffff1614905090565b60025481565b600660059054906101000a900462ffffff1681565b600660089054906101000a900473ffffffffffffffffffffffffffffffffffffffff1681565b610994610e40565b151561099f57600080fd5b6109a76108f3565b15156109b257600080fd5b600860009054906101000a900473ffffffffffffffffffffffffffffffffffffffff1673ffffffffffffffffffffffffffffffffffffffff166323b872dd30600960009054906101000a900473ffffffffffffffffffffffffffffffffffffffff16600860009054906101000a900473ffffffffffffffffffffffffffffffffffffffff1673ffffffffffffffffffffffffffffffffffffffff166370a08231306040518263ffffffff167c0100000000000000000000000000000000000000000000000000000000028152600401808273ffffffffffffffffffffffffffffffffffffffff1673ffffffffffffffffffffffffffffffffffffffff168152602001915050602060405180830381600087803b158015610ad157600080fd5b505af1158015610ae5573d6000803e3d6000fd5b505050506040513d6020811015610afb57600080fd5b81019080805190602001909291905050506040518463ffffffff167c0100000000000000000000000000000000000000000000000000000000028152600401808473ffffffffffffffffffffffffffffffffffffffff1673ffffffffffffffffffffffffffffffffffffffff1681526020018373ffffffffffffffffffffffffffffffffffffffff1673ffffffffffffffffffffffffffffffffffffffff1681526020018281526020019350505050600060405180830381600087803b158015610bc457600080fd5b505af1158015610bd8573d6000803e3d6000fd5b50505050565b6000600760003373ffffffffffffffffffffffffffffffffffffffff1673ffffffffffffffffffffffffffffffffffffffff16815260200190815260200160002060000160009054906101000a900462ffffff16905090565b610c3f610863565b151515610c4b57600080fd5b8062ffffff16610c59610bde565b62ffffff1610151515610c6b57600080fd5b600860009054906101000a900473ffffffffffffffffffffffffffffffffffffffff1673ffffffffffffffffffffffffffffffffffffffff166323b872dd3033600660039054906101000a900461ffff1661ffff1685026040518463ffffffff167c0100000000000000000000000000000000000000000000000000000000028152600401808473ffffffffffffffffffffffffffffffffffffffff1673ffffffffffffffffffffffffffffffffffffffff1681526020018373ffffffffffffffffffffffffffffffffffffffff1673ffffffffffffffffffffffffffffffffffffffff1681526020018262ffffff1681526020019350505050600060405180830381600087803b158015610d7f57600080fd5b505af1158015610d93573d6000803e3d6000fd5b5050505080600660058282829054906101000a900462ffffff160192506101000a81548162ffffff021916908362ffffff16021790555080600760003373ffffffffffffffffffffffffffffffffffffffff1673ffffffffffffffffffffffffffffffffffffffff16815260200190815260200160002060000160008282829054906101000a900462ffffff160392506101000a81548162ffffff021916908362ffffff16021790555050565b60006005544210159050905600a165627a7a72305820c9238128e3495bf3e118832f5b99116cad7fe45669c7c63e22c7accda8fd839c0029",
  "source": "pragma solidity ^0.4.23;\n\nimport \"./Wallet.sol\";\n\ncontract Event\n{\n    bytes32 public m_Name;\n    bytes32 public m_Description;\n    bytes32 public m_Image;\n    uint public m_StartDate;\n    uint public m_EntranceDate;\n    uint public m_FinishDate;\n    uint24 public m_TotalTickets;\n    uint16 public m_Cost;\n    uint24 public m_TicketsLeft;\n    address public m_Owner;\n\n    mapping ( address => tickets ) m_TicketMap;\n    Wallet m_Wallet;\n    address m_BenefitiaryAddress;\n\n    struct tickets\n    {\n        uint24 amount;\n        uint24 amountRedeemed;\n    }\n\n    constructor(bytes32 name, bytes32 description, bytes32 image, uint startDate, uint16 duration, uint16 entranceDuration,\n                uint24 totalTickets, uint16 cost, address walletAddress, address benefitiaryAddress) public\n    {\n        m_Name = name;\n        m_Description = description;\n        m_Image = image;\n        m_StartDate = startDate;\n        m_FinishDate = m_StartDate + duration;\n        m_EntranceDate = m_StartDate - entranceDuration;\n        m_TotalTickets = totalTickets;\n        m_Cost = cost;\n        m_TicketsLeft = m_TotalTickets;\n        m_Owner = msg.sender;\n\n        m_Wallet = Wallet(walletAddress);\n        m_BenefitiaryAddress = benefitiaryAddress;\n    }\n\n    function isBenefitiary() public view returns(bool)\n    {\n        return(msg.sender == m_BenefitiaryAddress);\n    }\n\n    function isEntranceOpen() public view returns(bool)\n    {\n        return !hasStarted() && now >= m_EntranceDate;\n    }\n\n    function hasStarted() public view returns(bool)\n    {\n        return now >= m_StartDate;\n    }\n\n    function hasFinished() public view returns(bool)\n    {\n        return now >= m_FinishDate;\n    }\n\n    function amountOfTickets() public view returns (uint24 amount)\n    {\n        return m_TicketMap[msg.sender].amount;\n    }\n\n    function amountOfRedeemedTickets() public view returns (uint24 amount)\n    {\n        return m_TicketMap[msg.sender].amountRedeemed;\n    }\n\n    function buyTickets(uint24 amount) public\n    {\n        require(!hasStarted());\n        require(m_TicketsLeft >= amount);\n\n        m_Wallet.transferFrom(msg.sender, this, amount*m_Cost);\n\n        m_TicketsLeft -= amount;\n        m_TicketMap[msg.sender].amount += amount;\n    }\n\n    function sellTickets(uint24 amount) public\n    {\n        require(!hasStarted());\n        require(amountOfTickets() >= amount);\n\n        m_Wallet.transferFrom(this, msg.sender, amount*m_Cost);\n\n        m_TicketsLeft += amount;\n        m_TicketMap[msg.sender].amount -= amount;\n    }\n\n    function redeemTicket() public\n    {\n        require(amountOfTickets() >= 1);\n        require(isEntranceOpen() || (hasStarted() && !hasFinished()));\n\n        --m_TicketMap[msg.sender].amount;\n        ++m_TicketMap[msg.sender].amountRedeemed;\n    }\n\n    function releasePayment() public\n    {\n        require(hasFinished());\n        require(isBenefitiary());\n\n        m_Wallet.transferFrom(this, m_BenefitiaryAddress, m_Wallet.balanceOf(this));\n    }\n}",
  "sourcePath": "/home/jan/Projects/angular-truffle-starter-dapp-master/contracts/Event.sol",
  "compiler": {
    "name": "solc",
    "version": "0.4.24+commit.e67f0147.Emscripten.clang"
  },
  "schemaVersion": "2.0.0",
  "updatedAt": "2018-06-18T21:29:58.907Z"
}