{
  "contractName": "EventFactory",
  "abi": [
    {
      "inputs": [
        {
          "name": "walletAddress",
          "type": "address"
        }
      ],
      "payable": false,
      "stateMutability": "nonpayable",
      "type": "constructor"
    },
    {
      "constant": false,
      "inputs": [
        {
          "name": "name",
          "type": "bytes32"
        },
        {
          "name": "description",
          "type": "bytes32"
        },
        {
          "name": "image",
          "type": "bytes32"
        },
        {
          "name": "date",
          "type": "uint256"
        },
        {
          "name": "duration",
          "type": "uint16"
        },
        {
          "name": "entranceDuration",
          "type": "uint16"
        },
        {
          "name": "tickets",
          "type": "uint24"
        },
        {
          "name": "cost",
          "type": "uint16"
        },
        {
          "name": "benefitiaryAddress",
          "type": "address"
        }
      ],
      "name": "createEvent",
      "outputs": [],
      "payable": false,
      "stateMutability": "nonpayable",
      "type": "function"
    },
    {
      "constant": true,
      "inputs": [],
      "name": "getEvents",
      "outputs": [
        {
          "name": "events",
          "type": "address[]"
        }
      ],
      "payable": false,
      "stateMutability": "view",
      "type": "function"
    }
  ],
  "bytecode": "0x608060405234801561001057600080fd5b506040516020806115418339810180604052810190808051906020019092919050505033600160006101000a81548173ffffffffffffffffffffffffffffffffffffffff021916908373ffffffffffffffffffffffffffffffffffffffff16021790555080600260006101000a81548173ffffffffffffffffffffffffffffffffffffffff021916908373ffffffffffffffffffffffffffffffffffffffff1602179055505061147c806100c56000396000f30060806040526004361061004c576000357c0100000000000000000000000000000000000000000000000000000000900463ffffffff168063404aa8f91461005157806378c0a2ba146100bd575b600080fd5b34801561005d57600080fd5b5061006661016d565b6040518080602001828103825283818151815260200191508051906020019060200280838360005b838110156100a957808201518184015260208101905061008e565b505050509050019250505060405180910390f35b3480156100c957600080fd5b5061016b60048036038101908080356000191690602001909291908035600019169060200190929190803560001916906020019092919080359060200190929190803561ffff169060200190929190803561ffff169060200190929190803562ffffff169060200190929190803561ffff169060200190929190803573ffffffffffffffffffffffffffffffffffffffff1690602001909291905050506101fb565b005b606060008054806020026020016040519081016040528092919081815260200182805480156101f157602002820191906000526020600020905b8160009054906101000a900473ffffffffffffffffffffffffffffffffffffffff1673ffffffffffffffffffffffffffffffffffffffff16815260200190600101908083116101a7575b5050505050905090565b6000428711151561020b57600080fd5b8989898989898989600260009054906101000a900473ffffffffffffffffffffffffffffffffffffffff168a61023f6103ab565b808b600019166000191681526020018a6000191660001916815260200189600019166000191681526020018881526020018761ffff1661ffff1681526020018661ffff1661ffff1681526020018562ffffff1662ffffff1681526020018461ffff1661ffff1681526020018373ffffffffffffffffffffffffffffffffffffffff1673ffffffffffffffffffffffffffffffffffffffff1681526020018273ffffffffffffffffffffffffffffffffffffffff1673ffffffffffffffffffffffffffffffffffffffff1681526020019a5050505050505050505050604051809103906000f080158015610336573d6000803e3d6000fd5b50905060008190806001815401808255809150509060018203906000526020600020016000909192909190916101000a81548173ffffffffffffffffffffffffffffffffffffffff021916908373ffffffffffffffffffffffffffffffffffffffff1602179055505050505050505050505050565b604051611095806103bc833901905600608060405234801561001057600080fd5b506040516101408061109583398101806040528101908080519060200190929190805190602001909291908051906020019092919080519060200190929190805190602001909291908051906020019092919080519060200190929190805190602001909291908051906020019092919080519060200190929190505050896000816000191690555088600181600019169055508760028160001916905550866003819055508561ffff16600354016005819055508461ffff166003540360048190555083600660006101000a81548162ffffff021916908362ffffff16021790555082600660036101000a81548161ffff021916908361ffff160217905550600660009054906101000a900462ffffff16600660056101000a81548162ffffff021916908362ffffff16021790555033600660086101000a81548173ffffffffffffffffffffffffffffffffffffffff021916908373ffffffffffffffffffffffffffffffffffffffff16021790555081600860006101000a81548173ffffffffffffffffffffffffffffffffffffffff021916908373ffffffffffffffffffffffffffffffffffffffff16021790555080600960006101000a81548173ffffffffffffffffffffffffffffffffffffffff021916908373ffffffffffffffffffffffffffffffffffffffff16021790555050505050505050505050610e798061021c6000396000f300608060405260043610610112576000357c0100000000000000000000000000000000000000000000000000000000900463ffffffff1680630190874814610117578063087e62121461014c57806325bad9b61461017f5780632a65848b146101b15780633520cb0d146101dc57806339e29c52146101f35780633e8c0be51461022657806344691f7e146102515780634b746a771461028057806351c627fd146102b557806361bc95f8146102e85780638be18cd51461031757806392a9babe146103425780639e5c91c314610371578063b02c8d0a146103a4578063ca75d770146103d9578063d116c8c414610430578063e886cd1414610447578063e98ebeec1461047c578063fe5815a6146104ae575b600080fd5b34801561012357600080fd5b5061012c6104dd565b604051808262ffffff1662ffffff16815260200191505060405180910390f35b34801561015857600080fd5b506101616104f2565b604051808261ffff1661ffff16815260200191505060405180910390f35b34801561018b57600080fd5b506101af600480360381019080803562ffffff169060200190929190505050610506565b005b3480156101bd57600080fd5b506101c6610719565b6040518082815260200191505060405180910390f35b3480156101e857600080fd5b506101f161071f565b005b3480156101ff57600080fd5b50610208610857565b60405180826000191660001916815260200191505060405180910390f35b34801561023257600080fd5b5061023b61085d565b6040518082815260200191505060405180910390f35b34801561025d57600080fd5b50610266610863565b604051808215151515815260200191505060405180910390f35b34801561028c57600080fd5b50610295610870565b604051808262ffffff1662ffffff16815260200191505060405180910390f35b3480156102c157600080fd5b506102ca6108c9565b60405180826000191660001916815260200191505060405180910390f35b3480156102f457600080fd5b506102fd6108cf565b604051808215151515815260200191505060405180910390f35b34801561032357600080fd5b5061032c6108ed565b6040518082815260200191505060405180910390f35b34801561034e57600080fd5b506103576108f3565b604051808215151515815260200191505060405180910390f35b34801561037d57600080fd5b5061038661094b565b60405180826000191660001916815260200191505060405180910390f35b3480156103b057600080fd5b506103b9610951565b604051808262ffffff1662ffffff16815260200191505060405180910390f35b3480156103e557600080fd5b506103ee610966565b604051808273ffffffffffffffffffffffffffffffffffffffff1673ffffffffffffffffffffffffffffffffffffffff16815260200191505060405180910390f35b34801561043c57600080fd5b5061044561098c565b005b34801561045357600080fd5b5061045c610bde565b604051808262ffffff1662ffffff16815260200191505060405180910390f35b34801561048857600080fd5b506104ac600480360381019080803562ffffff169060200190929190505050610c37565b005b3480156104ba57600080fd5b506104c3610e40565b604051808215151515815260200191505060405180910390f35b600660009054906101000a900462ffffff1681565b600660039054906101000a900461ffff1681565b61050e610863565b15151561051a57600080fd5b8062ffffff16600660059054906101000a900462ffffff1662ffffff161015151561054457600080fd5b600860009054906101000a900473ffffffffffffffffffffffffffffffffffffffff1673ffffffffffffffffffffffffffffffffffffffff166323b872dd3330600660039054906101000a900461ffff1661ffff1685026040518463ffffffff167c0100000000000000000000000000000000000000000000000000000000028152600401808473ffffffffffffffffffffffffffffffffffffffff1673ffffffffffffffffffffffffffffffffffffffff1681526020018373ffffffffffffffffffffffffffffffffffffffff1673ffffffffffffffffffffffffffffffffffffffff1681526020018262ffffff1681526020019350505050600060405180830381600087803b15801561065857600080fd5b505af115801561066c573d6000803e3d6000fd5b5050505080600660058282829054906101000a900462ffffff160392506101000a81548162ffffff021916908362ffffff16021790555080600760003373ffffffffffffffffffffffffffffffffffffffff1673ffffffffffffffffffffffffffffffffffffffff16815260200190815260200160002060000160008282829054906101000a900462ffffff160192506101000a81548162ffffff021916908362ffffff16021790555050565b60045481565b6001610729610bde565b62ffffff161015151561073b57600080fd5b6107436108cf565b806107635750610751610863565b80156107625750610760610e40565b155b5b151561076e57600080fd5b600760003373ffffffffffffffffffffffffffffffffffffffff1673ffffffffffffffffffffffffffffffffffffffff168152602001908152602001600020600001600081819054906101000a900462ffffff166001900391906101000a81548162ffffff021916908362ffffff160217905550600760003373ffffffffffffffffffffffffffffffffffffffff1673ffffffffffffffffffffffffffffffffffffffff168152602001908152602001600020600001600381819054906101000a900462ffffff1660010191906101000a81548162ffffff021916908362ffffff160217905550565b60005481565b60035481565b6000600354421015905090565b6000600760003373ffffffffffffffffffffffffffffffffffffffff1673ffffffffffffffffffffffffffffffffffffffff16815260200190815260200160002060000160039054906101000a900462ffffff16905090565b60015481565b60006108d9610863565b1580156108e857506004544210155b905090565b60055481565b6000600960009054906101000a900473ffffffffffffffffffffffffffffffffffffffff1673ffffffffffffffffffffffffffffffffffffffff163373ffffffffffffffffffffffffffffffffffffffff1614905090565b60025481565b600660059054906101000a900462ffffff1681565b600660089054906101000a900473ffffffffffffffffffffffffffffffffffffffff1681565b610994610e40565b151561099f57600080fd5b6109a76108f3565b15156109b257600080fd5b600860009054906101000a900473ffffffffffffffffffffffffffffffffffffffff1673ffffffffffffffffffffffffffffffffffffffff166323b872dd30600960009054906101000a900473ffffffffffffffffffffffffffffffffffffffff16600860009054906101000a900473ffffffffffffffffffffffffffffffffffffffff1673ffffffffffffffffffffffffffffffffffffffff166370a08231306040518263ffffffff167c0100000000000000000000000000000000000000000000000000000000028152600401808273ffffffffffffffffffffffffffffffffffffffff1673ffffffffffffffffffffffffffffffffffffffff168152602001915050602060405180830381600087803b158015610ad157600080fd5b505af1158015610ae5573d6000803e3d6000fd5b505050506040513d6020811015610afb57600080fd5b81019080805190602001909291905050506040518463ffffffff167c0100000000000000000000000000000000000000000000000000000000028152600401808473ffffffffffffffffffffffffffffffffffffffff1673ffffffffffffffffffffffffffffffffffffffff1681526020018373ffffffffffffffffffffffffffffffffffffffff1673ffffffffffffffffffffffffffffffffffffffff1681526020018281526020019350505050600060405180830381600087803b158015610bc457600080fd5b505af1158015610bd8573d6000803e3d6000fd5b50505050565b6000600760003373ffffffffffffffffffffffffffffffffffffffff1673ffffffffffffffffffffffffffffffffffffffff16815260200190815260200160002060000160009054906101000a900462ffffff16905090565b610c3f610863565b151515610c4b57600080fd5b8062ffffff16610c59610bde565b62ffffff1610151515610c6b57600080fd5b600860009054906101000a900473ffffffffffffffffffffffffffffffffffffffff1673ffffffffffffffffffffffffffffffffffffffff166323b872dd3033600660039054906101000a900461ffff1661ffff1685026040518463ffffffff167c0100000000000000000000000000000000000000000000000000000000028152600401808473ffffffffffffffffffffffffffffffffffffffff1673ffffffffffffffffffffffffffffffffffffffff1681526020018373ffffffffffffffffffffffffffffffffffffffff1673ffffffffffffffffffffffffffffffffffffffff1681526020018262ffffff1681526020019350505050600060405180830381600087803b158015610d7f57600080fd5b505af1158015610d93573d6000803e3d6000fd5b5050505080600660058282829054906101000a900462ffffff160192506101000a81548162ffffff021916908362ffffff16021790555080600760003373ffffffffffffffffffffffffffffffffffffffff1673ffffffffffffffffffffffffffffffffffffffff16815260200190815260200160002060000160008282829054906101000a900462ffffff160392506101000a81548162ffffff021916908362ffffff16021790555050565b60006005544210159050905600a165627a7a72305820be2d1b46c757e63678d3f5371487f27555a253dc146fed06bfeaf8cba40a3a7d0029a165627a7a72305820e81739f9588aa3c7eb09cf3b91010b1cd3591afbf447e816267c97f0710ea5fe0029",
  "source": "pragma solidity ^0.4.23;\n\nimport \"./Event.sol\";\n\ncontract EventFactory\n{\n    address[] m_Events;\n    address m_Owner;\n    address m_WalletAddress;\n\n    constructor(address walletAddress) public\n    {\n        m_Owner = msg.sender;\n        m_WalletAddress = walletAddress;\n    }\n\n    function createEvent(bytes32 name, bytes32 description, bytes32 image, uint date, uint16 duration,\n                         uint16 entranceDuration, uint24 tickets, uint16 cost, address benefitiaryAddress) public\n{\n        require(date > now);\n        address newEvent = new Event(name, description, image, date, duration, entranceDuration,\n                                     tickets, cost, m_WalletAddress, benefitiaryAddress);\n        m_Events.push(newEvent);\n    }\n\n    function getEvents() public view returns (address[] events)\n    {\n        return m_Events;\n    }\n}\n",
  "sourcePath": "/home/jan/Projects/angular-truffle-starter-dapp-master/contracts/EventFactory.sol",
  "compiler": {
    "name": "solc",
    "version": "0.4.24+commit.e67f0147.Emscripten.clang"
  },
  "schemaVersion": "2.0.0",
  "updatedAt": "2018-06-19T10:37:03.280Z"
}