{
  "contractName": "Wallet",
  "abi": [
    {
      "inputs": [
        {
          "name": "initialAmount",
          "type": "uint256"
        }
      ],
      "payable": false,
      "stateMutability": "nonpayable",
      "type": "constructor"
    },
    {
      "constant": true,
      "inputs": [
        {
          "name": "user",
          "type": "address"
        }
      ],
      "name": "balanceOf",
      "outputs": [
        {
          "name": "",
          "type": "uint256"
        }
      ],
      "payable": false,
      "stateMutability": "view",
      "type": "function"
    },
    {
      "constant": false,
      "inputs": [
        {
          "name": "to",
          "type": "address"
        },
        {
          "name": "amount",
          "type": "uint256"
        }
      ],
      "name": "transfer",
      "outputs": [],
      "payable": false,
      "stateMutability": "nonpayable",
      "type": "function"
    },
    {
      "constant": false,
      "inputs": [
        {
          "name": "from",
          "type": "address"
        },
        {
          "name": "to",
          "type": "address"
        },
        {
          "name": "amount",
          "type": "uint256"
        }
      ],
      "name": "transferFrom",
      "outputs": [],
      "payable": false,
      "stateMutability": "nonpayable",
      "type": "function"
    }
  ],
  "bytecode": "0x608060405234801561001057600080fd5b5060405160208061039d8339810180604052810190808051906020019092919050505033600160006101000a81548173ffffffffffffffffffffffffffffffffffffffff021916908373ffffffffffffffffffffffffffffffffffffffff16021790555080600080600160009054906101000a900473ffffffffffffffffffffffffffffffffffffffff1673ffffffffffffffffffffffffffffffffffffffff1673ffffffffffffffffffffffffffffffffffffffff16815260200190815260200160002081905550506102b4806100e96000396000f300608060405260043610610057576000357c0100000000000000000000000000000000000000000000000000000000900463ffffffff16806323b872dd1461005c57806370a08231146100c9578063a9059cbb14610120575b600080fd5b34801561006857600080fd5b506100c7600480360381019080803573ffffffffffffffffffffffffffffffffffffffff169060200190929190803573ffffffffffffffffffffffffffffffffffffffff1690602001909291908035906020019092919050505061016d565b005b3480156100d557600080fd5b5061010a600480360381019080803573ffffffffffffffffffffffffffffffffffffffff16906020019092919050505061017d565b6040518082815260200191505060405180910390f35b34801561012c57600080fd5b5061016b600480360381019080803573ffffffffffffffffffffffffffffffffffffffff169060200190929190803590602001909291905050506101c5565b005b6101788383836101d4565b505050565b60008060008373ffffffffffffffffffffffffffffffffffffffff1673ffffffffffffffffffffffffffffffffffffffff168152602001908152602001600020549050919050565b6101d03383836101d4565b5050565b806101de8461017d565b101515156101eb57600080fd5b806000808573ffffffffffffffffffffffffffffffffffffffff1673ffffffffffffffffffffffffffffffffffffffff16815260200190815260200160002060008282540392505081905550806000808473ffffffffffffffffffffffffffffffffffffffff1673ffffffffffffffffffffffffffffffffffffffff168152602001908152602001600020600082825401925050819055505050505600a165627a7a72305820c0cac6045d42ae378ec26d47f39323ae573f6920e24112e744930c3b023e760a0029",
  "source": "pragma solidity ^0.4.23;\n\ncontract Wallet\n{\n    mapping( address => uint256 ) m_BalanceMap;\n    address m_Owner;\n\n    constructor(uint256 initialAmount) public\n    {\n        m_Owner = msg.sender;\n        m_BalanceMap[m_Owner] = initialAmount;\n    }\n\n    function balanceOf(address user) public view returns(uint256)\n    {\n        return m_BalanceMap[user];\n    }\n\n    function _transfer(address from, address to, uint amount) internal\n    {\n        require(balanceOf(from) >= amount);\n\n        m_BalanceMap[from] -= amount;\n        m_BalanceMap[to] += amount;\n    }\n\n    function transfer(address to, uint amount) public\n    {\n        _transfer(msg.sender, to, amount);\n    }\n\n    function transferFrom(address from, address to, uint amount) public\n    {\n        _transfer(from, to, amount);\n    }\n}",
  "sourcePath": "/home/jan/Projects/angular-truffle-starter-dapp-master/contracts/Wallet.sol",
  "compiler": {
    "name": "solc",
    "version": "0.4.24+commit.e67f0147.Emscripten.clang"
  },
  "schemaVersion": "2.0.0",
  "updatedAt": "2018-06-20T18:31:45.904Z"
}